:020000040800F2
:1000000000000120C5020008CB020008CF02000852
:1000100041030008450300088D03000800000000AC
:10002000000000000000000000000000D5030008F0
:10003000D903000800000000DD030008D10C00080F
:10004000F1030008F1030008F1030008F1030008C0
:10005000F1030008F103000855080008F103000847
:10006000F1030008F1030008F1030008F1030008A0
:10007000F1030008F1030008F1030008F103000890
:10008000F1030008F1030008F1030008000000007C
:10009000000000000000000000000000F103000864
:1000A000F1030008F1030008F1030008F103000860
:1000B000F1030008F1030008F1030008F103000850
:1000C000F1030008F1030008F1030008F103000840
:1000D000F1030008F1030008F1030008000000002C
:1000E000F1030008F1030008F1030008000000001C
:1000F000000000000000000000000000F103000804
:1001000000000000F1030008F1030008F1030008FB
:1001100000000000000000000000000000000000DF
:10012000F1030008F1030008F1030008F1030008DF
:10013000F1030008000000000000000000000000C3
:10014000000000000000000000000000F1030008B3
:10015000F1030008F1030008F1030008F1030008AF
:10016000F1030008F1030008000000000000000097
:10017000000000000000000000000000000000007F
:1001800000000000F1030008000000000000000073
:10019000F103000800B583B000F0BAF9384B394AD2
:1001A0001360394A1360394900E02146384B9942BF
:1001B0000BD20A684B6801F10C0488689842F4D9A4
:1001C0001168196004330432F8E72E4B1A68314B7A
:1001D0009A4200D0FEE72C4B1A682F4B9A42F9D175
:1001E000274B2E4A13602E4A13602E4B05E0002049
:1001F000106004329342FAD80B462B4A934204D241
:10020000194651F8082B5B68F4E7244B1B6813B9B7
:10021000234B1B6803B1FEE700F086F9694601A88D
:1002200000F022F9214C224BE41AA4100025AC4224
:1002300014DC204C204BE41AA4100025AC4213DC43
:100240000099019800F04CFD05461C4C1C4BE41A2B
:10025000A410002C0EDC284600F0E2F8144B53F8F2
:10026000253098470135E2E7134B53F8253098477E
:100270000135E3E7013C124B53F824309847E8E797
:10028000BABADECA0000002074000020F40300089F
:100290000C04000878563412325476987800002006
:1002A000180100200C0400081C0400081C040008AD
:1002B0001C0400081C0400081C0400081C0400089E
:1002C0001C04000808B5FFF765FF00BEFEE71EF03E
:1002D000040F0CBFEFF30880EFF309807146414A29
:1002E00010472DE9F04182B004468846124B5E6B00
:1002F0009F6B9D6A1B6B13F0020F03D00E4BDB6AE2
:10030000002B0CDB0D4800F0B7F8CDF800803B4621
:1003100032462946204600F00BF900BEFEE74BF6B8
:10032000AB6100F07FF90028ECD0034B4FF00042A6
:10033000DA6202B0BDE8F08100ED00E06417000869
:1003400000BEFEE71EF0040F0CBFEFF30880EFF3D2
:1003500009807146244A10472DE9F04182B00446D5
:100360008846084B5E6B9F6B9D6A074800F084F8D7
:10037000CDF800803B4632462946204600F0D8F8AA
:1003800000BEFEE700ED00E0741700081EF0040F49
:100390000CBFEFF30880EFF309807146134A104752
:1003A0002DE9F04182B004468846084B5E6B9F6B96
:1003B0009D6A074800F060F8CDF800803B46324661
:1003C0002946204600F0B4F800BEFEE700ED00E04C
:1003D0008017000800BEFEE700BEFEE700BEFEE795
:1003E00070470000E302000859030008A103000859
:0403F00000BEFEE766
:1003F400D4B700080000002078000020D4B700081B
:100404000000001000000010780000201C010020F3
:080414000000001000000010C0
:10042000FEE7000008B503460C4A12685AB10B4AB1
:100430001068033323F003030344094A934206D8A8
:10044000064A136008BD054A06491160EFE700F04F
:1004500087FC0C2303604FF0FF30F3E77C000020A3
:1004600000FC00201C01002001230360014B0B60F5
:10047000704700BF040000200FB400B583B004AB88
:1004800053F8042B01938021064800F09BFC0028C0
:1004900003DD0146034800F037F803B05DF804EBD4
:1004A00004B07047840000202DE9F04385B0044675
:1004B0000F4643560BB10E461EE004252846214642
:1004C000ABBE0446384605B0BDE8F08314F9011B05
:1004D00004AA1A4402F8101C0133AB42F6D304AA52
:1004E0001344002203F8102C4FF00408E94640465C
:1004F0004946ABBE8046761B002EE3D03546102E13
:1005000028BF10250023E8E708B5FFF7CDFF08BD99
:1005100008B500F097F8024A024B9A6008BD00BF88
:100520000000000800ED00E008B500F0ABF808BDE1
:10053000F8B504460D4617461E462748FFF79CFFB0
:1005400021682648FFF798FF61682548FFF794FF68
:10055000A1682448FFF790FFE1682348FFF78CFF6C
:1005600021692248FFF788FF61692148FFF784FF6E
:10057000A1692048FFF780FFE1691F48FFF77CFF72
:100580001E48FFF779FF29461D48FFF775FF1D4CF0
:10059000E16A1D48FFF770FF216B1C48FFF76CFFF5
:1005A000E16B1B48FFF768FF15F0800F0AD115F4C7
:1005B000004F0CD11748FFF75FFF06991648FFF769
:1005C0005BFFF8BD39461548FFF756FFEFE73146A8
:1005D0001348FFF751FFEDE74816000858160008CA
:1005E0006816000878160008881600089816000893
:1005F000A8160008B8160008C8160008D816000883
:10060000E416000800ED00E0F416000804170008E6
:1006100014170008441700084C1700082417000896
:100620003417000883691A888A4201D00020704775
:100630000268033A012A03D802338361012070471C
:10064000002070470C4B1A6842F001021A6000212A
:1006500099601A6822F0847222F480321A60074A84
:100660005A601A6822F480221A60D960044B4FF055
:1006700000629A60704700BF0038024010300024CA
:1006800000ED00E0224B9B6803F00C03042B14D018
:10069000082B16D01BB11F4B1F4A1A6002E01D4BDE
:1006A0001D4A1A601A4B9B68C3F303131B4AD15CA3
:1006B000184A1368CB4013607047164B164A1A60ED
:1006C000F0E7134B5A685B6803F03F0312F4800FA6
:1006D00013D0114AB2FBF3F20D4B5B68C3F38813DE
:1006E00003FB02F30A4A5268C2F30142013252008C
:1006F000B3FBF2F3074A1360D4E7074AB2FBF3F205
:10070000034B5B68C3F3881303FB02F3EAE700BF04
:10071000003802400C0000200024F400901700086C
:1007200010B5044601221146002000F04DF9204684
:1007300000F068FA10BD10B50446002201211046F1
:1007400000F042F9204600F05DFA10BD08B5012224
:100750000021084600F08EF800231A461946184674
:1007600000F0CEF801221146002000F083F80023AB
:100770001A460121184600F0C3F80122002108465C
:1007800000F022F9642000F08FFA00221146104692
:1007900000F01AF9012000F087FA01220021084632
:1007A00000F012F9642000F07FFA00221146104692
:1007B00000F00AF9642000F077FA012200210846CF
:1007C00000F002F9782000F057FA1120FFF7B3FF8C
:1007D0000A2000F051FA3A20FFF7ADFF0520FFF79D
:1007E0009FFF2920FFF7A7FF08BD70B506462A2006
:1007F000FFF7A1FF0020FFF793FF0020FFF790FF16
:100800000020FFF78DFF7F20FFF78AFF2B20FFF7E7
:1008100092FF0020FFF784FF0020FFF781FF0020F8
:10082000FFF77EFF9F20FFF77BFF2C20FFF783FF62
:1008300000240AE036F81400C5B2000AFFF770FF82
:100840002846FFF76DFF0134A4B2B4F5A04FF1D3F1
:1008500070BD000008B5054B1B682BB19847044AD2
:10086000536943F00103536108BD00BF0401002038
:10087000003C0140034620B9A1F10D00C0B202289E
:100880000DD9012B07D010B4012B17D043B1022B87
:1008900022D010BC7047C81EC0B20228F3D87047DF
:1008A000144B1C6848000321814024EA01011960AF
:1008B0001C6802FA00F121431960EAE70E4B1C683C
:1008C00048000321814024EA010119601C6802FAF2
:1008D00000F121431960DCE7084B18684900032444
:1008E0008C4020EA04001860186802FA01F1014304
:1008F0001960CEE7000002400004024000080240F8
:1009000030B4044620B9A1F10D00C0B2022806D9C6
:10091000012C06D0012C21D044B1022C36D030BCA1
:100920007047C81EC0B20228F4D8F8E723484468CC
:1009300001258D4024EA0504446044688A4022432E
:1009400042608268490003248C4022EA04028260EB
:10095000826803FA01F111438160E0E718484468B6
:1009600001258D4024EA0504446044688A402243FE
:1009700042608268490003248C4022EA04028260BB
:10098000826803FA01F111438160C8E70D484468A9
:1009900001258D4024EA0504446044688A402243CE
:1009A00042608268490003248C4022EA040282608B
:1009B000826803FA01F111438160B0E70000024050
:1009C0000004024000080240034620B9A1F10D00D6
:1009D000C0B202280DD9012B07D010B4012B16D0BC
:1009E00043B1022B20D010BC7047C81EC0B20228F1
:1009F000F3D87047134B586901248C4020EA040057
:100A00005861586902FA01F101435961EBE70E4B55
:100A1000586901248C4020EA04005861586902FAA0
:100A200001F101435961DEE7084B586901248C400C
:100A300020EA04005861586902FA01F10143596142
:100A4000D1E700BF0000024000040240000802405D
:100A5000034620B9A1F10D00C0B202280DD9012B27
:100A600007D010B4012B2BD043B1022B4AD010BCBD
:100A70007047C81EC0B20228F3D87047072911D9A1
:100A80000F29F4D80839C9B2304B586A89000F24AD
:100A90008C4020EA04005862586A02FA01F10143CE
:100AA0005962E4E72948036A89000F248C4023EA4D
:100AB00004030362036A02FA01F119430162D6E7F3
:100AC000072911D90F29D2D80839C9B2204B586A41
:100AD00089000F248C4020EA04005862586A02FA08
:100AE00001F101435962C2E71A48036A89000F24E1
:100AF0008C4023EA04030362036A02FA01F11943FA
:100B00000162B4E7072912D90F29B0D8A1F108036F
:100B1000DBB20F49486A9B000F249C4020EA040086
:100B20004862486A02FA03F303434B629FE70848AE
:100B3000036A89000F248C4023EA04030362036ADA
:100B400002FA01F11943016291E700BF000002407F
:100B50000008024000040240084A136843F0010301
:100B60001360064B1B6813F0020FFAD0034B9A6810
:100B700022F003029A609A689A6070470038024037
:100B80001F2924D8032822D8DFE800F0020A121A0D
:100B90000F48036B012202FA01F119430163704708
:100BA0000B48436B012202FA01F11943416370477C
:100BB0000748036C012202FA01F1194301647047EE
:100BC0000348436C012202FA01F119434164704762
:100BD000003802400A4B1A6842F400721A601A6820
:100BE00042F480721A601A6842F004021A601A68AD
:100BF00042F002021A601A6842F040021A6070471E
:100C000000300140074B9B6813F0020FFAD0054BF0
:100C1000D860044B9B6813F0010FFAD0014BD868E1
:100C200080B2704700300140044B1A6822F0040281
:100C30001A601A6822F001021A60704710E000E0A2
:100C4000044B586000229A601A6842F001021A6050
:100C5000704700BF10E000E0024A136843EA40001A
:100C60001060704710E000E0024B1868C0F30040CD
:100C7000704700BF10E000E010B504460020FFF709
:100C8000EBFF4FF4FA6000FB04F0FFF7D9FFFFF72A
:100C9000EBFF0028FBD0034A136823F00103136025
:100CA00010BD00BF10E000E010B504460020FFF7C3
:100CB000D3FF6000FFF7C4FFFFF7D6FF0028FBD08B
:100CC000024A136823F00103136010BD10E000E036
:100CD00008B5024B1B6803B1984708BD0801002006
:100CE00008B5FFF739FF00210846FFF749FF0C213F
:100CF0000320FFF745FFFFF797FF022204210020A2
:100D0000FFF7B8FD052204210020FFF7A1FE022213
:100D100005210020FFF7AEFD052211460020FFF758
:100D200097FE022206210020FFF7A4FD05220621DE
:100D30000020FFF78DFE022207210020FFF79AFD19
:100D4000052207210020FFF783FEFFF743FFFFF78F
:100D5000FDFC0248FFF749FDFEE700BFA0170008B1
:100D6000014B1868704700BF1000002030B5141EFA
:100D700005469BB0184605DA8B232B604FF0FF30F9
:100D80001BB030BD4FF40273ADF80C3014BF04F14A
:100D9000FF332346029305934FF6FF7300910491AE
:100DA000ADF80E3002461E9B6946284600F072F8E8
:100DB000431CBCBF8B232B60002CE1D0009B002286
:100DC0001A70DDE707B5009313460A46014603484B
:100DD0000068FFF7CBFF03B05DF804FB10000020B4
:100DE0002DE9F0478E689E4282460C469046994611
:100DF00037D88A8912F4906F31D0256809696F1A43
:100E00006569022305EB450595FBF3F509F101033F
:100E10003B449D4238BF1D46530530D5294600F05E
:100E200079FB064650B90C23CAF80030A38943F079
:100E30004003A3814FF0FF30BDE8F0873A462169B7
:100E400000F0F6FAA38923F4906343F08003A381B2
:100E5000266165613E44ED1B2660A5604E464E4509
:100E600000D94E4632464146206800F0ECFAA368AD
:100E70009B1BA36023681E4426600020DCE72A46F3
:100E800000F0A2FB06460028E2D12169504600F09E
:100E9000F3FAC8E72DE9F04F9DB0804603938B89A4
:100EA0001D060C4616460FD50B696BB9402100F0A4
:100EB00031FB2060206128B90C23C8F800304FF0C6
:100EC000FF30C7E0402363610023099320238DF89E
:100ED000293030238DF82A304FF0010B37463D463C
:100EE00015F8013B0BB1252B3ED1B7EB060A0BD011
:100EF0005346324621464046FFF772FF013000F06C
:100F0000A480099B534409933B78002B00F09D80FB
:100F100000234FF0FF32CDE90523049307938DF8AA
:100F200053301A932F46052217F8011B4F4800F043
:100F30002FFA049BD0B9D90644BF20228DF8532044
:100F40001A0744BF2B228DF853202A782A2A15D05D
:100F5000079A2F4600200A25394611F8013B303BFD
:100F6000092B4DD9B8B10FE02F46B8E73F4A801A98
:100F70000BFA00F0184304903D46D3E7039A111D85
:100F800012680391002A01DB079204E0524243F009
:100F90000203079204933B782E2B0CD17B782A2BEB
:100FA00033D1039B1A1D1B680392002BB8BF4FF06F
:100FB000FF33023705932E4D39780322284600F07F
:100FC000E7F938B14023401B03FA00F0049B0343C8
:100FD00001370493397827488DF8281006227E1CA3
:100FE00000F0D6F9002838D0234B13BB039B0733FE
:100FF00023F0070308330393099B4B4409936DE7E0
:1010000005FB023201200F46A6E7002301370593B6
:1010100019460A25384610F8012B303A092A03D917
:10102000002BC8D00591C6E705FB01210123074627
:10103000F0E703AB00932246104B04A94046AFF300
:101040000080B0F1FF3F8146D6D1A3895B063FF512
:1010500036AF09981DB0BDE8F08F03AB0093224670
:10106000064B04A9404600F081F8EAE7A0B7000863
:10107000A6B70008AAB7000800000000E10D0008AC
:101080002DE9F04791461F468A680B69DDF82080FC
:101090009342B8BF1346C9F8003091F84320064682
:1010A0000C4612B10133C9F800302368990642BFDB
:1010B000D9F800300233C9F80030256815F006056C
:1010C00007D104F1190AE368D9F800209B1AAB4252
:1010D00028DC94F843302268003318BF01239206BD
:1010E0002DD404F1430239463046C047013020D0A8
:1010F0002368E568D9F8002003F00603042B08BF35
:10110000AD1AA36822690CBF25EAE5750025934254
:10111000C4BF9B1AED184FF000091A344D451AD17F
:10112000002008E00123524639463046C0470130CE
:1011300003D14FF0FF30BDE8F0870135C3E7E11878
:101140005A1C302081F84300224494F8451082F85C
:1011500043100233C5E70123224639463046C047D3
:101160000130E6D009F10109D8E700002DE9F0438C
:1011700001F1430C0C46097E85B06E2917460646E0
:1011800098460C9A00F0B38022D8632936D00AD84A
:10119000002900F0B980582900F0838004F142054D
:1011A00084F8421032E0642901D06929F6D1206820
:1011B0001368050603F104012AD51B681160002B92
:1011C00003DA2D225B4284F843206F480A2239E07B
:1011D000732900F09D8008D86F2920D07029DDD1B7
:1011E000236843F02003236003E0752917D0782992
:1011F000D4D1782384F84530644855E01368191D2C
:101200001B68116004F1420584F8423001238CE030
:101210001B68116010F0400F18BF1BB2CFE71368B6
:101220002568181D1060280601D51B6802E06806B5
:10123000FBD51B8854486F2914BF0A2208220021BD
:1012400084F843106568A560002DC0F29580216880
:1012500021F004012160002B3DD1002D40F08E8053
:101260006546082A0BD12368DB0708D52369626825
:101270009A42DEBF302305F8013C05F1FF35ACEBA7
:1012800005032361CDF800803B4603AA2146304682
:10129000FFF7F6FE01304DD14FF0FF3005B0BDE84D
:1012A000F083394884F84510136821681D1D1B68B8
:1012B00015600A060BD5CA0744BF41F02001216022
:1012C0001BB9226822F0200222601022B7E74D06E7
:1012D00048BF9BB2EFE76546B3FBF2F102FB113367
:1012E000C35C05F8013D0B460029F5D1B9E7136849
:1012F00025686169181D106028061B6801D51960F2
:1013000002E06A06FBD51980002323616546B9E730
:101310001368191D11601D6862680021284600F0DD
:1013200037F808B1401B606063682361002384F8CC
:101330004330A7E723692A4639463046C047013083
:10134000AAD023689B0713D4E068039B9842B8BFD8
:101350001846A3E701234A4639463046C0470130C4
:101360009AD00135E368039A9B1AAB42F2DCEBE7B3
:10137000002504F11909F5E7002BACD1037884F8B6
:10138000423004F142056CE7B1B70008C2B700086B
:1013900001F0FF01102A2BDB10F0070F08D010F826
:1013A000013B013A8B422DD010F0070F42B3F6D12A
:1013B000F0B441EA012141EA014122F007047FF043
:1013C00000070023F0E80256083C85EA010586EA9A
:1013D000010685FA47F5A3FA87F586FA47F6A5FAD6
:1013E00087F68EB9EED1F0BC01F0FF0102F00702E2
:1013F00032B110F8013B013A83EA010313B1F8D18D
:101400000020704701387047002D06BF354603386D
:10141000073815F0010F07D1013015F4807F02BFA6
:10142000013015F4C03F0130F0BC0138704700BFF7
:1014300010B5431E0A44914200D110BD11F8014B72
:1014400003F8014FF7E7884210B501EB020307D814
:10145000421E99420AD011F8014B02F8014FF8E7F9
:101460008342F5D98118D21AD34200D110BD13F8A6
:10147000014D01F8014DF7E738B50546002945D083
:1014800051F8043C0C1F002BB8BFE41800F0D2F850
:101490001F4A1368104633B9636014602846BDE8DC
:1014A000384000F0C8B8A3420CD9216862189342B2
:1014B00004BF1A685B68636004BF5218226004604E
:1014C000ECE713465A680AB1A242FAD919685818CB
:1014D000A0420BD120680144581882421960DDD126
:1014E000106852685A6001441960D7E702D90C238A
:1014F0002B60D3E7206821188A4204BF1168526824
:10150000626004BF091821605C60C7E738BD00BF96
:101510000C01002070B5CD1C25F0030508350C2DFD
:1015200038BF0C25002D064601DBA94203D90C2348
:101530003360002070BD00F07DF8214A1468214618
:1015400091B9204C23681BB9304600F063F8206045
:101550002946304600F05EF8431C24D10C2333604A
:10156000304600F068F8E4E70B685B1B18D40B2BDF
:101570000FD90B60CD50CC18304600F05CF804F168
:101580000B00231D20F00700C31AD3D05A42E250AB
:10159000D0E78C424B6816BF636013600C46EBE7E4
:1015A0000C464968CCE7C41C24F00304A04205D0D3
:1015B000211A304600F02EF80130CFD02560DBE74D
:1015C0000C01002010010020F8B5074614460E4615
:1015D00021B91146BDE8F840FFF79CBF22B9FFF7DB
:1015E0004BFF25462846F8BD00F026F8A0420FD252
:1015F00021463846FFF78EFF05460028F2D03146D7
:101600002246FFF715FF31463846FFF735FFE9E779
:101610003546E7E738B5064C002305460846236003
:10162000FEF700FF431C02D1236803B12B6038BDD5
:10163000140100207047704751F8043C181F002B1C
:10164000BCBF0B58C0187047537461636B2066723F
:10165000616D653A0A000000205230203D202025AF
:101660003038580A00000000205231203D2020254B
:101670003038580A00000000205232203D2020253A
:101680003038580A00000000205233203D20202529
:101690003038580A0000000020523132203D202509
:1016A0003038580A00000000204C52203D202025F0
:1016B0003038580A00000000205043203D202025EB
:1016C0003038580A0000000020505352203D202599
:1016D0003038580A000000004653522F4641523A13
:1016E0000A0000002043465352203D202025303878
:1016F000580A00002048465352203D20202530380B
:10170000580A00002044465352203D2020253038FE
:10171000580A00002041465352203D2020253038F1
:10172000580A0000204D4D464152203D20253038BA
:10173000580A00002042464152203D2020253038E2
:10174000580A00004D6973630A000000204C522FB4
:101750004558435F52455455524E3D202530385828
:101760000A0000005B486172644661756C745D0A32
:10177000000000005B4275734661756C745D0A0081
:101780005B55736167654661756C745D0A000000A6
:101790000000000000000000010203040607080921
:1017A0006B6989814AB287A967A9E598A6B188D2F1
:1017B00007CA45B161906098E2B006DAC4D904E284
:1017C000A4D983D9E2D984EAA4EAA3EAE3F2E2E263
:1017D000C8FCA7FC86FCA3EBE1DA66DBEBC3D5DD36
:1017E000F5CDD7CD5AD6D8CD95BD6B6B63212311DE
:1017F000093A1ACE78C5B8CDD8CD56BD15C594C412
:10180000139DAE93AA924359C561498A2499C1A8F0
:1018100083DAC4F305F4C6F329FCC6EBA2E360D374
:10182000A0DBA5FCC7FC45ECE2DBE0D3A3EC06FDA6
:1018300087ECE1A1C080C08025AA08C345AA008129
:101840006091A299E18047AA06920048A16006B380
:1018500066E402ECE4F3A5FBA1DA42E3E3F3C3EBB5
:1018600088E328FCE5FB67FC2AFC4CCB4C92286102
:101870002C8289714861A7488940AB486A404A4038
:101880006B386B384B386B388C38AC306C282B206D
:101890008C206C206C206C206C206B204B182A183C
:1018A0006C69AA816BBAA7B168A90599A6B188D25B
:1018B00027D286B94190609823B9E6D9C4D904DA11
:1018C000C5E1C3E144EA64EA83EAC4EAC3EA02EB9D
:1018D00025F466F483DBC3EBE2DA83BAECC337EEBC
:1018E00074C518DE19D619D638D626420219031146
:1018F000A410539C56C535BDD8C577B5F5B416C5EB
:10190000939CF0A3A8714140C348C460838840A061
:1019100027F3E6FBE5EBC2CA45E3E7EB24F463F407
:1019200080DBA5FC45EC86F4C5F4A3EC05FD47FD82
:1019300047EC8099409145B265BAA299829904A278
:10194000E1A1E3A9C4A16391069A8581405826B319
:1019500025DC63F403FCC5FBA5F383EBA3EBA3E356
:1019600086E344E383EBA5F306CBE6916769C650B3
:1019700048616769C55049610A51CB488A4069404E
:101980008B406B386B304B308C30CD38ED380E31AE
:101990008C286C204B184B184B186B184B184B1895
:1019A0006B69AA898BBAA8B167A90599A6B168D253
:1019B00027D2A6C14090609864C1C6D905E204E26E
:1019C000C5E1C3D985F264EA63E2E4F2E3F264F3C9
:1019D000E4EBA3DBC4E346FC43E345CBB3F537E6D6
:1019E00054CD59EE39DEF8D575C50329E31804192D
:1019F000A3104539EF9334B5F8BDB8B577B5B4AC9D
:101A0000D6B4D2AB68718358625000506390E3C083
:101A100043DAE6FB05F423D3E3CAA4DBE3EB83FC60
:101A200044F485FC03ECE2DBA5F447FDC5FC48FD6E
:101A3000C5DB42B244B224B2A2A1A2A104AAE3A986
:101A400023AA24B246BAC3A1C499E591837988C375
:101A5000A7F421EC80EB83EBC5F3E5F305FC84EB05
:101A600023E381D264EB87E386B245710759E750DF
:101A7000C650476106590959EA50AA40AA40AA40EF
:101A80006B308B38AC38AC38AC38AD30AC288C20EF
:101A9000CD28AD208C208C208C208C184B182A103F
:101AA0006B69AA896BC287B147B105A1A6B168D29B
:101AB00048DA65B94098609864C1E6E126EA24E214
:101AC00084D9E4E185F263EA63E2E4F224F3A5FB5E
:101AD00005F487FCE4E3C4EB43DBE4BA55FE54C5EC
:101AE00096D538E638DE55BD0B7361180421C4184D
:101AF000A32081202B7B95C5D8BD77AD77B556BD8A
:101B0000F6DC50BBA89183684160417882A820A888
:101B100084EA47FCA3E325EC45ECE7FC63F480DBB7
:101B200065FC24F423EC03ECC5FCC6FCC3DB26EC0B
:101B300065DB83BA23B2A2A982A104B265BA04B25A
:101B400024B224B266CAA6D2E3A18289669A09D4D5
:101B500086ECE1EB43FC45FC05F4E5F327FCA6F33A
:101B6000C6FB46F3C9FB8BDB4A9A2861C848C848C4
:101B7000C74828616A69274049382A304A306A389C
:101B80006B308B308B308B308C288C288C208C20C9
:101B9000CD28CD20AD20AC20CD208C204B180A10B4
:101BA0006B71AA896AC266B147B105A1C6B967DA85
:101BB00048DAE3B04098409803B9E6E126EA04E247
:101BC00083D125EA65F263EA63E2C4EA24FB84FB7D
:101BD000C5EB42D342CB42D343D3E8D314F633BD53
:101BE00018DE38D658D674B5284A41180529A420DD
:101BF00062208128A96A17CE97B598BDB8CD35CD9A
:101C00000EC34799C490C388C288819881B080C0B0
:101C1000C1D1E6FB04EC65F463EC05FD25FDA3FCF6
:101C200085FC64FC23ECC5FCC6FCA3DBC4E3A6E393
:101C3000C3C222B2C2A9E3B124BA24BA24BAA5C24B
:101C400044B224BA44CA85D2A5CA03A2C289A7CB8A
:101C500046ECC2EB44FCE4F3C4EBC5EBA4EB85F328
:101C6000E4F2E6EA67C2E9A129690A510B492A4967
:101C7000E9502A616C6929406B384B302B302A308F
:101C80006B286B286B286B288C28CD300E312E31B9
:101C9000ED28AD208C188C188C188B184B182A1036
:101CA0006B71CA916AC266B147B125A9E6C187DAEC
:101CB00048DA03B140984098E2B806E225E204DA37
:101CC00083D124E264EA63EA83E2C3EA44F384F35F
:101CD00026FCA4DB83DB46F4A5DBACEC96FE13AD5F
:101CE00059D679D679CE58C62B6B6118E430A32823
:101CF000C33040200331B6C5B8BDD9D573CCAAA234
:101D00006490A4A0A4A08190A2A081A8A2C0C1C0F8
:101D100020B9A4DA27F404EC02DC83EC84F464FC3C
:101D2000C3EBC2E322ECA4FC64F4A4E344DB62BA98
:101D300001B263C223BAE2B124BA65C244BA84C212
:101D400064BA64C223CA63D226E3A4BA8089C3B248
:101D500006ECC4EB67FC47FC46F467FCE4F342EB9B
:101D600045FBE7E2C6A948810A592B492B412A497C
:101D70002A514B61AA50CB50CC48AC40AC388C387F
:101D80008C30AC30AD30ED300E312E312E312E3165
:101D9000CD20CD20AC188C188B186B184A102A1047
:101DA0004A69CA918BC266B146B105A9E6C187DA14
:101DB00047DA65C14098409803B927E205E204DAA2
:101DC000A3D124E264EA63EAA3EAE4EA24F384F315
:101DD000C4EBE5EB26EC63D323C34AD472D5B6BD7E
:101DE00059CE59C679C699CE8D734018C328832819
:101DF000C330E3304010F08BB8CD36DDA791C298E8
:101E0000C5B0C4A882988298E3A841A020A081A868
:101E1000C2A042A127DB28F466F485F424E467F429
:101E200025F4C3EB23F443F4C2E347F405D323BA08
:101E300023BA84CA43C243C223C264C243C284C217
:101E400083BA64CA43CAA4DAE4DAE4CA42AA21A281
:101E500085DBC6EB28FC07F4A4E304F445FCC3FBD4
:101E600087F345C286916A716B596B4909410941F3
:101E70000951E9504840CA48AA40AB38AB38AC38A1
:101E80000E39EE38ED30CD30ED28ED28EE28ED2876
:101E9000CD20CD20AC18AC188C186B184A102A1025
:101EA0002A69CA91ABCA86B126A904A1C5B987DA45
:101EB00006D2C6C92090409843C106E2E5D903DAAC
:101EC000C4D104E284F243E2A3EA24F303EB84F3F3
:101ED00026FCC4E326EC63D3A5D38BD415E6B6BDAC
:101EE00079D659CE7ACE58C6EA626020E330A3286C
:101EF0008328E43020108A5AF3BCF4E444A1C1B82A
:101F0000E3A88198E298E190029944A985B1C6B10D
:101F100007B20391C3A929FC25F4E3E321CBA4DB99
:101F2000A3E3A2E3C1E3A5FCC3E3A6E343BAE2B1A2
:101F300044C284CA83CAA4CA23C223BA63C2A4CA3D
:101F4000C4CA63CA84D2A4DAC4DA25DBA2C221AA35
:101F5000C5C24AFCC8EBC6F326FC45FC04FCC4F32E
:101F600069DB439147798B69CD616B490941094927
:101F7000E950A948CA50A9408938AB388B30AC38F1
:101F8000AD30CD30CD30CD28CD28CD28ED28CD2099
:101F9000AC208C188C186B186B186B186B188B187E
:101FA0006B71EA91AAC286B105A924A1E6C167DADC
:101FB00084C164B981986098A4C926E246E203DA34
:101FC000E4D924E243EAA4F262DA24EBE2E2C1DAE1
:101FD000E5F384E3A4DBE5E3E6DBCCDC35E6D7BD63
:101FE00059DE39CE9BDE75B5A962C128C22883208F
:101FF0008420C4280018887253DD0EDC84B960B8D0
:1020000006C26AE369DB6AD3EDEBEDEB4FF470ECEB
:1020100071ECEFE306B206DBE5F3E2EB03EC66F40A
:10202000E5F386FC23F4C6FCE4EBA3C202B203BAD8
:1020300085C2C5D2E4D2A4CA64CA43C263C2C4CAB8
:10204000C4CA83CA84CA84D2E4DA04E3E4D2C4CA28
:1020500044B22BF429F483E3C3F3E4F385EBA7EB59
:102060008AAAC889E8606B596C510A4109418840C5
:10207000CA48AB48CB48CB40EB40CC388D386E30AB
:10208000AD28AD28CD30CD30CD28AD28AD208C2069
:102090008C188C186B184B104B104B186B186B1856
:1020A0004A69EA91AAC286B105A104A1E5C187DA0D
:1020B000E5D164B96098409084C126E246E224DA12
:1020C000C3D124E2A5FAC4F283E245F364EB64EBE6
:1020D00047FC26F406EC26EC44C30DDD56E618C694
:1020E00018D63ADE5BDE35BD2B7B0231C218E5180F
:1020F000842082300028E79A6CDC4AD3A5C121B045
:10210000C9DA11FD8EF4D0FC12FD91F433FD54FDBB
:1021100096FD36FD6DDB44C2A4F3C2F303EC86ECFE
:1021200005F425F4C3E324F484DB01B2A1A944C27D
:10213000A5CAE5D205DBC4D284CA63C263C2A4CAFD
:10214000C4D2A4CAA4CAA4CAC4D204E3E4E2E6DAAC
:1021500044B247D344DB82EB24FC84EBE7D206B2E3
:102160008979CB7909514B512A490949C848CA5044
:10217000EB50EC48EC48EB40EB40CC388D388E30DF
:10218000CD30CD30CE30EE30CE28CD28CD28CD206C
:102190008C186B186B184B184B184B184B184B18A6
:1021A0000961EA91ABC266B105A104A1C5B9A7E274
:1021B00006D243B940902090A5C947E225DA03DA58
:1021C000E4D9E3D943EA84F282E2E3E284EB67FCF8
:1021D000E5F347FC06F4A4DB68EC4EEDD4D5D7C597
:1021E0005ADE3ADEF9D539DE33BD2329C310C410D7
:1021F000C52881402492C8DB46DBE8DA86C184B07A
:102200002AD20CDBEACA0CCBEDCA2FD34ECBEDBAE7
:1022100090CB79FD73FCE4B186F3A3F348FDC7F4DA
:1022200043DBC4EBE4EBC4E3E2CA80A102B2E6D232
:10223000C5D205DB26E305DBA4CA63C283C283C221
:10224000C5DAA4CAC4CAA4C2C4D205E305EB27E315
:1022500086C206CB26F463FC65FC87EBAAC2A6788F
:10226000A7508B612A516A516A512851A740E95001
:10227000CB48CC40EC40EA40CA38AA38AC38AE383B
:10228000AD30AD30CD30CD30AD28AD28AD28AD2846
:102290006C204B184B186B186B182B182A102A102F
:1022A0000961EA918AC266B105A9E4A0A4B987DAF6
:1022B00047DA84C180982090C5C988EA25DA24DAF3
:1022C000E4D924EAA5FA63EA82E2E3DA43E383EBA2
:1022D00026FCC5EB43DBC5E3C6D38FF5B4D5D7C524
:1022E00039CE9BDE7ADE18D698E6274AE310051928
:1022F0002220E581C9EB45EB45F308E366B1A6A0D2
:1023000045A0238884886488058066886580647811
:102310006578D0C238FDC6A9E5E284F325F4E4DB94
:1023200063E306F426FC44DB20B280A163C206DB33
:1023300005DBE5DA25DB25DBA4CA63C283C284C2E0
:10234000C6DAA5D2C4CAA4C2A4D205E305EB47EB02
:10235000A5C2E4C287FCA1EBC4F38AE30BAA4960DF
:1023600088402A512A494949AA59E748A740C948FB
:102370008A38AB38AA308930683069306A288C30A6
:10238000AD28AD28AD28AD288C288C208C208C2041
:102390006C204B184B186B186B182B182A102A1826
:1023A0000961CA918BC266B126A9E4A084B167DA3B
:1023B00067E2A5C980A0008864C167EA25E224DA43
:1023C00045E2E3E143F283F204EB23E3C5EB87FC50
:1023D00026FCA5EB43DBE5EB23C34EEDB4DD18CEC5
:1023E0009ACEB7BD7ADE17D616D60A6BA110611841
:1023F00065596AD346F303F326F387D2A8A9247854
:10240000269885908480A588A7980588459085980A
:102410002480E888D6F489B2A5D2C5FBA4EB66EC8B
:10242000E4F306F4A6EBA3CA80A901BAE5D205DB62
:1024300026E3E4DA05DB45E3C4D262C263C284C2A8
:10244000C6DAC5D2C4CAA3C2C4D206E305EB26E3EA
:1024500006D3C3C2E5EBA3EB29FC8AC268686B58BC
:10246000AA48AA40EB48EA482A51A840C948CB40AC
:10247000CC38CD38CC388B386A304A306B288C2831
:10248000AD28AD28AD28AD28AD288C288C208C2017
:102490006B204B184B186B186B184B182A184B18DD
:1024A0000A61CA918BC2A7B926B1E4A084B966DAE1
:1024B00026DAA5C980A0009064C126E204E203DA0E
:1024C000C3D145EAE6FAA4F224F385EBE5F305F47B
:1024D000A4EBC5F3C5EBC5E385CB0DE5D4DDF8CDA5
:1024E00018BED39C96BD38D6F1B4A96AE130224912
:1024F0008BBB68E324F325FBC6DA88BA46812BA29E
:102500004999C578A791C899C6882588249863A059
:102510008498647053D44CBBE2A965F384F347F408
:10252000A3EB84EB25DB43C280A943C225DB45E353
:1025300066EB05DB05DB45E3E4D262C243BA85C244
:10254000A6DAC4D2C3D2A3CAA5D206E305E325E323
:10255000C4D2A3CAC7EBC8EBC8CA27816858894848
:102560008C48AC48EC500C51AA48AB48CC488C384D
:10257000EE380F39EE38AD388D388C38AD30CE307E
:10258000AD28AD28AD28CD28CD28AD28AC28AC206D
:102590006B206B184B186B186B184B184B186B187B
:1025A0000A61AA89ABCAC8C146B104A9A5B946DA6D
:1025B00006DAC5D1A1A84098C5D127EA05E203E211
:1025C000E3D924EA64FA63EAE4EA64EBC4EB25FCA9
:1025D000A4EB64EB84E3E6EB23C30DE536EEB7CD65
:1025E000B8BD56B576BD34B570ACE982C048458AF1
:1025F00088D305E304F3E5E2C7C28DC3498A35ED0C
:1026000014CCAB9250C4F0C364684580649884B025
:10261000A4A06470D5DC51CC429906F3A3E225DB7B
:1026200063EB85EB05DBE3B9C2B943C2E4D224E333
:1026300065EB25E305E305E3E4D263C243C285C24B
:10264000A5D2C3D2E3DAA3D2A5D206DB24E324E3E6
:1026500087EB22C2E6DAACEB88990558C958AF82FD
:10266000AC58AC50ED580D51CC48AC48AC408C3017
:10267000CD28EE28CE308D386D408C38AC30CD284A
:10268000AD28AD28CD28CD28CD28CD28AC208C2054
:102690006B188B188B186B186B184B184B186B1822
:1026A0000A61AA89ACCAE9C146B1E4A885C146DA83
:1026B000E5D9A5D160A02098A5D1E6E1E4E103E247
:1026C00004DA65F284FA42EAE3EAA5EBC4E3A3E3A1
:1026D00083EB84EBA4EB84E307E48BD4D5E5D7CD7F
:1026E0003AD6AC62F4AC35BDB5DD73DDC479E6AA8B
:1026F00046DB65F3E4EA47E387AA50CCF7F533DD20
:102700003CF693B4F2BC71BC0348036003880190AB
:1027100043986570D2ABB4CC449187EA48FB88F308
:1027200062EB85F3C5DA41A924C2A4D2E4DA44E31A
:1027300045E346EB25E3E4DAE4D283CA43C265C24B
:10274000A4D2C3DAE3DAA4D2A5D206DB44DB64E385
:1027500025E385D266CAC7B18678A96867480A6A40
:102760002D698A50CB508A48EC508B40AC38CC3025
:102770000D290E29EE30CD408D408C38CC30EC2820
:10278000ED30CD30CD28CD28CD28CD28AC208C20E3
:102790006B188C208C206B184B184B184B184B184F
:1027A0004C69CB918AC2C6C145B903A9A4C146DA16
:1027B000E6D1C6C9A1A02090C4C966E244E243E2C2
:1027C000E5D965F243FA82F2E3E2C5EBC4EB63EBD1
:1027D000E2DA86EB45EB42F382F348E456E6D9A50C
:1027E000B7BD54AD33A556B575A477CD72DD26BB04
:1027F00046E305E325CB66BBC6AA0ECCF8F5B7CDFC
:10280000DCFE76C5F3BC8FA32148004862602378C4
:10281000248825788DA216ED048947DA48FBE4E286
:1028200022D3A6E344C262A925C2A5DAC4DA43DBF7
:1028300084E344E3E5E2C5EA85E264D264C2A4B27B
:1028400064D2E4DAA2D2E4DAA4D206D326D367E3D0
:1028500047E3C7CA69AAC67088686D894A48CC48E8
:102860000D51AC48CC48CD48AC40AC38AD38AD3853
:10287000CD38CD38CE38CE38CD30CD30CD30AD306E
:10288000CD28CD28CD30ED30CD30CD288C206C201A
:102890008C206C206B206B186B184B184B182A1867
:1028A0000B61AA898AC2C7C124B9E2A8A4C147E2C0
:1028B000A5D1A6C98198209083C125E244E284EA8B
:1028C000C4D165F2C5FAA3F245F3C6EB05F483EB78
:1028D00023E386EBE3DA83F321E3A5D3F4DDF9AD5B
:1028E00056BDB9DE12A58B6257C576CD8EC4C8D34E
:1028F000E5DAE5DA05CB26BBC6AA2FD417F695C5CF
:10290000BBF6D7CDB2AC0C93415000502158648037
:10291000A69866886DA277F5048985C9E7FA25EB44
:1029200043EB45E3A1A983A966CA85D2C4DA24E3AF
:1029300044E324E305DBC5DAA5DA84D263C263BAD3
:1029400064CAA4D2C3D2C4DAE6DA27DB46D325DBD5
:1029500026E3C7CA08A2C6684760AB686A508B40C6
:102960006A38AB40AC40AC40CD40ED406C304B28B9
:10297000AD38CD38EE38CE38CD38CD38CD30CD303D
:10298000CD30CD30ED30EE30EE30CD28AD288C207E
:102990006C206B206B186B206B206B184B184B183E
:1029A0000B61AA89AACAE7C145B9E3A8C4C967E20D
:1029B000E6D9C6C960984090A3C966EA44E284EAB1
:1029C000C4D164F2A4FA82EA44EBC5EB04F4A3F3A5
:1029D00083EBA5EBC6F321E3E0DA84CB92D5D7B540
:1029E000B3B4B5C5AD83EF8B31A478EECED446C376
:1029F000E5DA84D2C5C206B3C7AA6FDC17F674BD88
:102A0000DBEEF7CD719CEB826250004800584378B2
:102A1000E8A06788CB91B9FD2691A1A845E287FB84
:102A2000C3F2E5EA40A1A2A165C285D2C4E2C3E235
:102A300025E325DB25D3E5D2C4CAA3CA63CA42C2B3
:102A400024C284C283C222BA24BA27D367DB25DB1F
:102A500046E3E7CAE899C760485829586B508B404D
:102A6000AB40AC40CC48CD40AC40AC38AD38AD38D4
:102A7000AD30CD38EE38CE38CD30CD30CD30CD3054
:102A8000CD30CD30ED30EE30EE30CD30AD28AC2055
:102A90006C206B188C208C208C206B186B186B189A
:102AA0004C69AA898AC2E7C145B903B1E5C967E2A1
:102AB000E6D9C6D120904098A3C966EA24E223E271
:102AC00065E2A5FA63F282EA24EB06F4E4F3C3F3C9
:102AD00083EB43DB64DB21DB61E383CBEECCD5C549
:102AE00072ACD1AC6F9C33BD75CD8FBC8CD445CB53
:102AF00026DBA6CA07BB27B3E8AAB0DC37EEB4BD15
:102B0000DBE695B570946D936148004821580270DA
:102B100087988790088199FDC8A9209883C9E5E224
:102B200063EA64DA00A1C3B145C2A5D2A4DAA3DA8C
:102B300005E346DB46D3E4CA83C262CA62CA42C224
:102B400003B264B2E2A10081C080E7C267DB24DB8C
:102B500066EBE7CAE891865049504B504A48CC4052
:102B6000AC40CC48CD48AC40CD40AC38EE40AD3860
:102B7000AD30CE38EE38EE38CD30CD30CD30AD3052
:102B8000CD30CD30ED30EE30EE30CD30AD28AC2054
:102B90008C208C20AC20AC20AC208B186B186B18D0
:102BA0004C69AA89AACA07CA65B923B105D267E2E6
:102BB000E6D9E7D14098609883C925E203DA43E279
:102BC00064E284F262EAC3EA45EBE5EBA3EB81EB56
:102BD00082E3E5EB22CB82DBE3EBA7EC0DDDB3D5A3
:102BE00055CD70A412ADD1AC54CDF4F529CC86CB23
:102BF00027D36ACBCCCB8AB309AB12DD57EED5C550
:102C00009ADE13A55094CE9B8250215042600370EF
:102C1000669809A1C77817FD4ABA619862B944CA93
:102C2000A5E2E3C1E098E4B965CAA5D283D2C4DACB
:102C300005D326DB25D3C4D283CA62CA42C202B2FC
:102C4000C399E29140796060606885B287DB04DBFC
:102C500045EBE8D2A78126406A486B504B48AB4011
:102C60008B40ED488C38AC38CD38ED40CD38AD38A0
:102C7000CD38EE380F410E39EE38CD38CD30CD306D
:102C8000CE30CD30EE30EE30EE30CD30AD28AC2051
:102C90008C208C20AC20AC20AC206B186B186B18EF
:102CA0004C69CA91ECD268D265B903A9E5C947E27B
:102CB00027E207DA60A06098A3D125E224E244EA83
:102CC000A4EAA4F2E4FA25F3C6F306F445FC03FCF7
:102CD00065FCC4EB05E466F4A6FCE8FC49CC74FE94
:102CE00075CD13B5B5C5F2B4D2BCAFD44AD487C341
:102CF00049C34FD4D1D4EDB32A9B74E558EEF6C541
:102D000079DE33AD509CAE9B8250415801582478F7
:102D1000469009A1A778D6F4ACC24188E5C149DB49
:102D2000A7CAC4A94299E5B145BA85D2A4D2C3D2F3
:102D300004D305D3E5DAA4D283D263CA03B2A2993D
:102D400063810069C060C068217965AA87DB03DB05
:102D500004E349D387796840AB484B488C488B38AB
:102D6000CD40AC40ED40326ACD38CD38EE40CE3863
:102D7000CE38EE380E390E39EE38EE38EE38CD3822
:102D8000EE30EE30EE300E390E31EE30CD28AC287C
:102D90008C208C208C20AC208C206B186B186B182E
:102DA0006C71EB990CDB69D265B903A9C5C926DA48
:102DB00006E2C6D940984098C4D105E224E223E255
:102DC00084EA83EAC4F2E4EA65EB06F486FC44FC98
:102DD00044FCE4E3E8FC45EC45EC86F407D48FF5CD
:102DE000F7D512AD2F8CAE8379F652ED88C388C328
:102DF000CCC3F3D4F2C42EAC6B9BF7ED39E6F7C528
:102E00009AE654BD71A44D9B6150426000584480C5
:102E100046908790667875ECCCBA007827BA08CBD4
:102E2000E6A1A5918489E591C39903AAA4CA62CABF
:102E3000E4DA04DBE4DAA3D263CA03B28299028142
:102E40006479216100610492E49185B266DB24E338
:102E500025EB49D3E9892A59AC484B408C408C3842
:102E6000CC406B382E49D5824F49CD38EE38AD3045
:102E7000CD30EE380E390E39EE38EE38EE38CE3829
:102E8000EE30EE300E390F392E390E31CD28AD2807
:102E9000AC208C208C20AC208C208B186B186B18ED
:102EA0008C71CA91CBD228CA45B903A9E5C926DAE3
:102EB000E6D9E6D980A880A804DA04E245EA44EA23
:102EC000C4EAA3F2A3F2E4EA04E327FC66FCE3F31A
:102ED000A2EB25F405E466EC04E4E3DB47E469E4F3
:102EE00036DED5CD919C3194F4C4F5FDCAC308AB50
:102EF00070CC14CD91B42EA4AD9B39EE19DEF8C57B
:102F00009AEE34BD91AC4C9B2048626801604480CD
:102F100046906690667813E4CDBA2170A6A18070C1
:102F20002479657965692782A379207963BA63CAB0
:102F3000C4D2E4DA04DBA2CA01B26191E278826809
:102F4000E6790582A27169BB04A2A5BA46DB65EBEE
:102F500066EB08CB8B9AAC698B486C484B38CD3804
:102F60008C38ED408C38CD380E41CD38EE38EE3807
:102F7000EE30EE380F390E390E390E39EE38CE38C4
:102F8000CE30EE300E390F392F390E31ED28CD28E5
:102F9000CD28AC20AC20AC20AC208C186B186B1862
:102FA0004B71EA990CDB48D245B9C2A0C4C926DAF4
:102FB000A5D947EA80A880A8E4D925EA45EA64EAC9
:102FC00083EAA4F2C4F205F345EB84EBE3F3A1EB4F
:102FD000C2EBE4EB25E4A3D3E3DBA7FC47F407E46F
:102FE000D3DD97E6509415AD18E64FC4CBC3669277
:102FF0000B938E9B2FACEDA370B459EE19DEB8C5C0
:1030000018DE34B533BDADA320484160016023789C
:10301000669025888680B1DBCDC2637882780060B7
:10302000A3582561255928724FC40DCC4CE427CBF9
:10303000A4CAC4CAE4D283C2A1A1C0780371056145
:103040004461A4698AB3A189C3A127D326DB45E3E0
:1030500026DB4AD3877947406A486C408D38CD30AB
:10306000AC38AC38AC38CD38CD38EE38EE30CE3068
:10307000EE302F390F392F412F41EE38EE38EE3830
:10308000EE380E390F392F392F390E39EE30CD2861
:10309000CD28CD20AD20AC20AC208C188C188B18FE
:1030A0004B71EA99CBD227D245B903A905D226DACA
:1030B000A5D907E2A0B0A0B0E4D904E204E203E29B
:1030C000A4EAA4F2E4F266FB65F3A4EBE4F324FCC7
:1030D000E3F3C3E346EC05E4C3DB25ECA4E3A5E39B
:1030E0006CC4B6FE53BDB3A418DEF6EDABB3468A8E
:1030F00044598EA3ADA30993B1C418E659DE76BD39
:1031000038D6B5C594C5A97A446962600060437831
:103110008588A698037870DB90DB4370427000606E
:10312000C35025592659876110B437FE15FE71FD2D
:103130000ADC26C3C5CA84C2C2A1017103598659DB
:1031400041404361E3890081A5C2E5CA05D366E336
:1031500026DB4ACB677967408A486B48AD38CD306B
:10316000AC38CD38CD38CD38EE38EE30EE30EE30EC
:10317000EE300F390F390F390E39EE380F41EE406E
:10318000EE300E390F392F392F390F39EE30EE2846
:10319000CD28CD20CD20AC20AC20AC188C188B18BD
:1031A0004B79C999CAD227D204B1E2A805D205DA6F
:1031B000E5D907E2E1B800C125E205E224E244E2F4
:1031C000C4F2E5F242E245FB64EBC4EB25F403F400
:1031D00004F4C3EBA4E305E405E4C3E342D326F41B
:1031E00009D42FE535EEB1ACF2AC53CDECB3C992B6
:1031F000898291CC2FC4E99A90C418E638D695BD3F
:1032000079DE99DE53BD676AE679658100584370BF
:103210008488859064888DCA8CBA43700260015896
:103220008248A45027596861C5500C9B93ED34FE29
:1032300013FEADE4E6BAC2A1A0780171C569813080
:1032400082482261007122AAA5CAE6D2E5D246DBF5
:1032500027DB2AC3677167408A486C48AD38ED2880
:10326000CD38CD38CD38ED38EE30EE30EE30EE30B2
:10327000EE300F390F390F39EE38EE404F49EE403E
:10328000EE300E392F392F392F392F39EE30EE2805
:10329000AD28CD28CD20CD20AC20AC208C188C18AA
:1032A0004B79A999CAD248D2E3A8A2A0E5C926E2DF
:1032B000E5E1E6E1E1B801C104E2E4E125EA64EA1E
:1032C000E5F2E4F283E224F384EB46FC44F4C2E347
:1032D000E3EBE4F3E4EBE4E3C3DB04E466FCC3E325
:1032E00064CB6ADC91E5B4D51AF74EA4ECAB8882C6
:1032F0000FB40FBCADBB09AB8CA3B6D579DE74BDE2
:10330000DBE6FAE6709C476A4782689AA270006022
:1033100084806388848868A10689436802580358BA
:1033200082582669C65068592651003023592EC448
:10333000D3F535FEF0EC0492C06862690151A03803
:103340002461C060A189A4C2A5D2A5D226DB26DB58
:1033500048DB0AC3476988408B406C40AD38ED2894
:10336000CD38CD38ED38EE38EE30EE30EE30EE3090
:103370000E310F394F412F41EE380F415049EE3891
:10338000EE300E392F394F392F390F31EE30CD282D
:10339000AD28CD28CD28CD20CD20AC208C208C1878
:1033A0004B79A999CAD268DA03B1A2A0E5C966EA45
:1033B000E5E1C5E101C120C104E2C3D925E285EA06
:1033C00006F3C4EA66FB84FB04FCC6FC23E423E4A6
:1033D00024F465FC45FCE4E365EC04E404EC24EC33
:1033E000E5E327DC6FED71CD36DEF8F68B9BC98205
:1033F0004C93F3D40EC46BABF3CC59DE58D632B534
:10340000FCEE58D64B7B6349A88AC9A2A68900580E
:103410006270838000708380A370025023508660A6
:103420000158A4582751274166494138A158A48121
:10343000C9AA53ED16FE72E5E89A804880504269A9
:10344000C2600071E29943BAC5D2A5D2C4D246E3A4
:1034500048DBEABA276189388B408C408C38EC30E5
:10346000CD30CD30CD30EE30EE30EE30EE30EE28D7
:103470000E312F39504150410E390F414F49EE382E
:10348000EE300E312F394F394F390F31EE30CD2814
:10349000CD28CD28CD28CD28CD28CD20AC208C20FE
:1034A0006B81A99989D268DA04B1C2A0C5C946E284
:1034B000E5E1C5D942C941C925EAE4E145E2A5EA09
:1034C00026F3E4EA24F3C5FB45FC64F484EC64ECE5
:1034D00023E4C3EB65FC61D341CBE3DBE3E3A2DB95
:1034E00045EC67E4CBDC91D58EAC35DE8FB48D93A3
:1034F0008E938D930EB44FBCF7DD59CE17CED5CD3C
:10350000DDF6B7CD075AA038C8920AAB689AA16811
:103510000058006000682168625800382340A650B7
:103520004358845027498741654900308381A8BAB0
:10353000A49164790EB436F652DDA7922171E07041
:10354000A0688289A19143BAA5D2C5D2A4D205DBD5
:1035500048DBCAB2E750AA388C388C40AC38CC3043
:10356000CD30CD30CD30EE30EE30EE30EE30EE28D6
:10357000EE302F39504150412F410F412F49EE403D
:10358000CE28EE302F394F394F392F31EE30CD283C
:10359000CD28CD28ED28ED28CD28CD20AC20AC209D
:1035A0006B81C9A189D227D2E3B0C2A8A4C905E220
:1035B000A4D9A5D942C920C125EAC3D924E2A5EAE4
:1035C00026EB25EBC2E2E4FB23FC22E4C4ECC5ECD1
:1035D00085F444F424F4C2E3E3E324E4E3DB24E4E9
:1035E00003DC87E48AD4D1E5B7F64EAC2FA492ACC5
:1035F00055BD109CB1BCAD9335AD5AC6D7BD16DED6
:103600007CFED4BC0341403026826BBBA9AAA581B5
:1036100040580050406881684461002023284430AD
:103620000348C648063966392441A05025A266BA27
:10363000639140584040EA8AF5ED11E549BB418964
:103640004289A291E2A103B2C6D264CAE5DAA4D249
:1036500027DBAAAAE848CB30AD30AD40AC38CB3838
:10366000CD30CD30CD30EE30EE300E31EE30EE28B4
:10367000EE302F392F394F412F410E412F410E414E
:10368000EE30EE302F314F394F392F310E31CD28FA
:10369000CD28CD28ED28ED28ED28CD28CD20AC2053
:1036A0004A81EAA989D207D2E3A8E3A8C5C926E2DC
:1036B000C5E1C5E162C920C104E2A3D904E2A5EADB
:1036C00005E3E4E2C5FB04FCE2EBA4F463DC47FDA4
:1036D000A5F4E7FCE3F365FC65EC85EC64E460CB02
:1036E000E6EC49F528CCC9A3F4DD36E6CD9BD7CD71
:1036F0009AD6108C2F9CD2ACD8BD3ABEB7BD98EEEE
:10370000FAED8F9B81380030A4714AB30AB3479217
:103710004371A168005803716CA300182220032094
:1037200002304430E6302539C661ABBB8AD386C24D
:1037300040702050204061400B9B6FD4CFF4AADB37
:103740006291C399A19903B265C285D283D2E4DAAA
:1037500007DB8AA2C848CC30CE30AD40AC40CB3875
:10376000CD30CD30EE30EE300E310E310E31EE2850
:103770000F3150392F392F412F41EE380F410F4172
:103780000E310F312F394F394F392F310E31EE288D
:10379000CD28CD28ED28EE28ED28CD28CD28AD2048
:1037A0006A792AA2EADA06D224B9E3B0A4D146EAB9
:1037B000A4E1C5E1A3D961C904E2A3D904E285EA81
:1037C00004EBA5FBA4F325FC04EC85F4A5F464EC60
:1037D00084EC07FDA5EC47FDE6F483E483DC25EDEE
:1037E00089ED25D449E4F0E46FB455DEF2CDF0ACB8
:1037F00076ADD08352BD70CD31B574B5D1AC75F610
:103800005BDD697141500040A058AABBE5B2439A04
:1038100041796281C0788AD36CBB00282120613055
:1038200026494228C4408238897AB1CC12DDD0DCE6
:103830008BBBE489E068E0688060459ACFE40CCCFB
:103840008399A3A182A9A2A9A5C2C5CAA3D284DAD9
:10385000C8DA0A9ACA40CC30AD408C48AC380D2941
:10386000EE30EE30EE30EE300E310E31EE30EE3026
:103870000F312F39904950412F390E394F410E41A8
:10388000EE300F392F392F392F390F310E310E29E4
:10389000EE28EE28EE280E290E29EE28ED28CD2858
:1038A0006A792AAAEADA06D203B1C2A8A4D166F2DA
:1038B000C4E1C5E1A3D9C2D924EAE4E103E264E2A8
:1038C00004EB23EBE5FB04F465F403E463EC84EC24
:1038D00002DC23DCC6F447FD47FD67FD67FD87FD7D
:1038E00089F566DC65C351ED98FE4D9C74DE36CEDD
:1038F000DCDEB8BD13ADF4CD0F841184B6C5B7F6C8
:1039000012C4A360826061580040E9AA49BBA28941
:103910002171A060A3910DDC6BAB2028001823411E
:103920006A82003865696571847109ABD0E431ED54
:1039300051F50FE52CCCC6A22071617907B3C6AA58
:10394000A3A182996199E3A9A5C284BAA3CAA4DA02
:10395000A8D2E991A938CB28CD388C40CD380D2993
:10396000EE30EE30EE30EE300E31EE30EE30EE284E
:103970000F312F39914990494F412F414F41EE3836
:10398000EE300F390F392F392F392F310E31EE2804
:10399000EE28EE280E290E29EE28EE28ED28CD2857
:1039A00029712AA2EADA27D2E3B0A1A884C926EABB
:1039B000E5E9E5E1C3D9C2D9E3D9A2D944EAE5F200
:1039C00044F385F306FC25FC24EC03E403E406FD44
:1039D000C5F444E489FD89FDE6F406F506F505ED38
:1039E00007ED09F509DCCCBBB9FEAFAC2C94D9E6E8
:1039F0009BD69DD676AD149D5AC67CC67ADEB8F6A7
:103A00004DD422818278A578014808920AB3427980
:103A10008060A068C178269A678A602820180239D9
:103A2000289200484479A49105AA04AAA6BA89CB91
:103A3000EEEC90F54FEDADDC2BCCE6AAE6B285B20C
:103A400085B2C6C28099609184B2E5C2A3CA63CA36
:103A5000A8D2A889A730EB28CC30AC38ED380E2995
:103A6000EE30EE30EE30EE300E310E31EE30EE3024
:103A70002F395039904190492F414F414F41EE38F5
:103A8000EE30EF300F392F392F392F310E31EE282C
:103A90000E29EE28EE28EE28EE28EE28EE28CD2876
:103AA000287109A2EADA47D2E3B061A083C905E22E
:103AB000A4E1A4E125EAC2D924E2C2D9A5F2E5F243
:103AC00003EB23EB06FCE4EBE7FC85F4A5F4C6F47A
:103AD00085F403DCC6F4E6FCE2D364E484E4E6F4B3
:103AE000E7ECE9F467C3B0DC2FB452BD72BD53B547
:103AF00097C53BD69BDE59C6FDD65BD6FCFE73DD73
:103B000008DC44B26178237003580579A691A0704F
:103B1000E2800289439946B2A05840300018243907
:103B2000E9AA0050C170A3A1C2B1E2B903BA23AAA5
:103B3000C18906AB0EE5B0F50EE52BD46CE406CBDF
:103B40000AE44AEC67D346CB84B243AAA3C223C299
:103B5000C8D2A781A7300B21EC28AC30CD38EE2895
:103B6000EE30EE30EE300E310E310E31EE30EE3002
:103B70002F395039704190492F3970494F410F41C9
:103B8000EE30EF300F3950394F392F310E31EE28EA
:103B9000EE28EE28EE28EE280E29EE30EE30EE303C
:103BA00049792AAAE9DA27D2C2A860A0A4C925EADD
:103BB000E5E9A4E104E2C2D944EA24E2E6F2C4EA77
:103BC00003E3C5FB26FC46FC45F4C2DB23E4C6F454
:103BD00064EC23E424E424E4E3DB64EC85ECA5EC6E
:103BE000E7F4C9ECA5A257FED6E5709C3AF777E654
:103BF00013CD30BC38EE5CFF76C514CD53EDAACBA7
:103C0000A5DBE6CA407800584160C2702389439919
:103C100084A9C5B946D2E8DA85B200382028E5384B
:103C20002AA32040A060C49920A180B923CA44B22D
:103C3000039AC289E6AA8CD430ED8DDC2BDCE5C278
:103C400029E408DCA7D3ABF46BEC26C384C243C2DF
:103C5000C8CAA781A6302B210C29AD30CE38CE287A
:103C6000CE28CE28EE30EE30EE30EE30EE28EE28C4
:103C70000E315039B149B1494F4170494F410E3968
:103C8000EF300F392F39503950392F310E29EE28A6
:103C9000CE28EE28EE28EE280E31EE30EE30EE3053
:103CA000497929AAE9DA47DAE2B081A0C4D125EA44
:103CB000E5E9E5E9C3D903DAE2D944EAC5F2E5EA80
:103CC000A4EB64EB05F404EC28FDE2DBA5F4A5F419
:103CD000E6FC07FDE7FC44E485F465EC64ECE2DB1C
:103CE000E3E348E4A59A70CCBAFE54B5D1A4F9FE3A
:103CF0002DCC48C369BB6DC4CCB38AC306CB65DB8E
:103D0000A5E309F4E4A96060007165A286BAE4B194
:103D1000C4B125CA05DA85E2A9F3E6B20030233042
:103D20006351C140E250A4816199A1B1A2B125B211
:103D300046AA66B2C6BAC6AA8ABB6DD46CE4C4B23F
:103D400008DCCBF408DC69EC2EFD09E484BA24C25B
:103D500088CAA781C6302A210D29CD30CE38CE3071
:103D6000CE28CE28EE28EE28EE30EE28EE28EE28DB
:103D70000E315039B149B1492F394F414F41EE38D9
:103D80000F312F395039503950392F310E29EE2843
:103D9000EE28EE28EE28EE300E310E31EE30EE3009
:103DA000287929AAE9DA67DAE2B060A0C4D105E28D
:103DB00083D9E5E904E285EA23E243E283E2E4EA27
:103DC000A4EBC4EB46FCE7FC07FD65EC44EC84EC9B
:103DD000A5F4E6F4C6FC64ECE7FCA5F465EC24E489
:103DE000E3EBE7DBC7A2D2D492B4FBE634AD52D505
:103DF00088D304DBE7EB45C326C305D320CAA4FB65
:103E000047FC86E347CB26B324B305BBA5BA86C2DD
:103E100045BA86CA65D265E226EB88DB259A003072
:103E200040300349034964698389C3A1C3A9C4A17C
:103E300047B2E4A965C2C7BA86A249B32BCC26BB58
:103E4000EDFCABF428DC08DCABF4EDFC2BF465CA2C
:103E500068CAC889C6380A210D29CE30CE38CE3876
:103E6000EE30EE28EE28EE28EE280E290E290E2937
:103E70000F314F39914170414F414F4170490E39D7
:103E80000F312F395039503950390F310E310E2939
:103E9000EE28EE280E290E310E31EE30EE30EE30E7
:103EA000498129AAC9DA26D2A1A84098C4D105E23D
:103EB00005EAE5E9E3E144EA64EA63E2A4EA25EB22
:103EC000E4EB04EC25F486FC03E4A5F463E4E5F4F8
:103ED000E6F464E423E464EC07FD07FD85F485F46F
:103EE00045FC44CB28ABFAFED3BC14A5FBDE36F66A
:103EF00026D322F301E343D364DB03E322F383FB02
:103F000024F4E6EB8AF4C7D3E2BA25CB06CBE6C2AB
:103F1000A5BAA5BAA6CAC6DAE5E266E3E9E320795E
:103F200000400359A2482361C4898289A391059A5C
:103F300005A265BA44C2A5C2E7BA24924492E9D365
:103F40002EFD6BE4AAECAAEC69E429DC4BF48AEBC5
:103F500068CAC991C7400B292E29EF38AE38CE3830
:103F6000EE28EE28EE28EE28EE28EE28EE28EE28A1
:103F70000E312F39B14990499149914990490E39F3
:103F80000F312F39503950392F312F310F310F3137
:103F90000E290E310E290E310E310F310F310F392E
:103FA000698909AAC9DA46DAC2A86098C4D125E2AB
:103FB000E5E9C4E1E3E123E243E222DA04EBC6FBF4
:103FC00024F404EC65F424EC64ECC6FC23E4C4ECB7
:103FD00063E4A0CB02DCA4EC84ECC6FC24ECC3E3D9
:103FE00025FC66D3459278FEFAFE9294B6B516E6A5
:103FF00087DB43F320E3A4E3A5E363EB06FCE5F3EF
:1040000024EC06EC8AFCE4D2E4D206DBA5CAE6CABC
:1040100005C3E5C2C6C2A6CAA5D245E3C6EB05CB19
:1040200006B2EAC28589E26842818289A28104924D
:1040300044A243BA63C2A4C2E6BA239AC2894ADC44
:1040400030FDCDEC09CC69DC6DFD0CF54BE4CCEB1F
:10405000CAD22AA2C740EA282E290F39EF38CD3814
:10406000EE28EE30EE28EE28EE28EE280E29EE2877
:104070000F314F39704191499041904970410E394B
:10408000EF302F392F39703970392F310F290E2920
:104090000E290E310E310E31EE300F312F395041D5
:1040A000698929B2E9E247DAC2A86098C4C925E261
:1040B000C4E1A4E1E3E123E283EA63E225F3A5F3AB
:1040C00065F4C2E3A5F464F484F484ECE5F446FDFD
:1040D000E5F4E5F405F584ECA5F4E6FCA2DB24ECBC
:1040E00047FCE4BAA69A90CC78F678DE55AD94D524
:1040F000E9DBA4F325FC05E484DBC5F3C5EBC5DBF4
:1041000024E407ECA8EB84DAE6E2C6DAC6CAC5C244
:10411000E4CA05D385C2C7CAC6CA25E366EB25E350
:10412000C8F28BFBC9D2C180228141816181A28901
:1041300043A242B262BA83C2A4BA029AE2916CE488
:1041400092FD8DD48BD449CC08C48EF5ADE44ACB16
:104150000FEC2AA22851EA280E29CF28AE300E39BA
:10416000EE28EE28EE28CE28CE28EE28EE28EE28DF
:104170000F312F31704190417041904950410E39BB
:104180000F312F392F39703970392F310F290F31F5
:104190000F290F310F310F310E310F392F395041A7
:1041A000488129B2E9E267DAE2A84098A3C904E2AB
:1041B000E4E9E5E924EA43E283EAA3E245EB84F398
:1041C00085FC64F465F4A6FC23E464EC84EC05F55A
:1041D000A4ECC4EC05FDC4F484F4E6FC44F424F43B
:1041E00065EB84B20CC436FE6FBCB9EEB9E673D58C
:1041F000A9D327FC46F426E4A5DBC5F368FCE5DB80
:1042000046EC07EC06DB65D269EB69D3C7AA69C344
:10421000E6C2A5CAE6D2A6CAC5CA06E346F326F395
:10422000C6F2E7F208E362A1A07842814281818967
:10423000E29922AA62B282B263AAE2998281AAC3F7
:1042400015FE10DD4FDD31FEEBD4C7ABADD4CCCBCA
:10425000B1F4ECB26761E9282E293031EE30ED2857
:10426000EE28EE28EE28CE28EE28EE28EE28EE28BE
:104270000F292F31703970419041914970410F39A8
:104280000F3150392F39703970392F310F310F31CB
:104290000F290F312F312F310F310F312F392F3996
:1042A000288129B2C9E246DAE2A8609883C104E213
:1042B00005EA25F244EA63EA62E282E244EBC5F3EE
:1042C00024EC85FC65F424EC65F465F484EC84EC62
:1042D000C4F446FD83EC63E464EC65F445F445FC0A
:1042E000E8FB029AABB35AFF31D5AFB45AFF31DDC8
:1042F000A8D3E6F346F4A3D343D3A4F384F383E330
:10430000E5E3C6E346DB47D3EBD3A3694020E040B7
:10431000E8AA28CBE6CAA5C205D3E5E206F348FB26
:10432000E5E2E1C1C5D2A7CA807002814389218933
:10433000619102A263AA63AA63AA239A4171E8A2C7
:10434000F5F54DB470DD77FF52F690DDEBAB8FD411
:10435000EED370E4E87928410C290F292F312D295B
:10436000EE28EE28EE28EE28EE280F290F290E2938
:104370000F312F3170399141B149D15190490F39E5
:104380000F3150393039503970392F310F310F31E9
:104390000F312F3150392F390F310F392F392F3934
:1043A000488929BAA8DA26D202A9609883C1E4D93B
:1043B000E4E905EA23EA63EA62E2A2E244EBC5F338
:1043C00024EC86FC65FC45F486FC65F485F484ECFD
:1043D000C4F426FDE5F426FDC5FC44F425F4C4EB45
:1043E000E8FB239A0993F6E5D4DD6EAC72D50FE5B0
:1043F000A8DBE6F3E5EB63D383EB83FB01EB62E33E
:1044000084E3C5E344CBC9CB28A300106000200897
:1044100020300ABB68CB04C3E3D2E4E227F347F3BE
:1044200005D380A943C208CB0279A2682389E08022
:104430006299C3A125A244A244A2449A82716BA3AB
:10444000CDA3A359867A33F637FF54EECFBCF0D410
:104450008BC372FDA99A26490B31EE282F314E29C4
:104460000E290E29EE28EE280E290F310F290E29CC
:104470002F312F3170399141B149F251B1490F3982
:104480000F3950395039503970392F310F310F31C0
:104490002F315039503950392F392F392F39503960
:1044A000699149BAC8DA26D202B1809883C104E280
:1044B000E4E9E4E9E3E163EAA3EAE3EA43EB83E363
:1044C00045F445FC45FCA7FC04F425F465F4A5FC83
:1044D00006FD43E4C4F406FDE2E304EC25FC05F428
:1044E000A7FB6081B0C4D2B433BD97EEF3ED2BD4FB
:1044F00025D3C6F342DBA3E305FC84FB83FB62F315
:1045000022E3C5E323C3C9CBC379256A4973465A5D
:1045100000282371CAD325CBE3D2C4E247F368EB6A
:1045200027D322BAC1B1C7C26481C3680379E188C5
:104530006299A399059A459A44A2229A81694EB438
:10454000B0C4C461A0402159F4ED18FF52C532DD5A
:1045500029BB71FD4DDC46610A410E390F310D2931
:104560000E310E31EE28EE280E290F290F290E29C3
:104570002F312F3170399041B149F251B1490F3982
:10458000303970415039703970392F310F310F3156
:104590002F315031503950392F310F310F392F39D8
:1045A000488949BAC8E226D202B18098A3C145E23F
:1045B00005EA05EA03E284EAC3EA24F364EB83E351
:1045C00004F4C3EB25FC05F4E4F3A3E365FCC6FCAB
:1045D000A5F443EC84ECA5F444F4E4EB62E3C5F306
:1045E00024EB808937EE1CEF719457E696FE4BE47E
:1045F00025DB44EB63EB42E364F385FB23F322E327
:1046000043EB84DB04BB29C3A5992EE40FEDAEDC9C
:104610002ABB6068E7BA25D325E3A5E227E30AECC5
:104620006AE3C6DAC2B9A7C2C5892469E26801890A
:104630002191A499E691259A43A2219A60698DB4AB
:10464000F6ED84610251E150E992B4DDB1B42EBCC3
:10465000E7B20BF4EEFC288AE948CD380F310E3171
:104660000E310E310E29EE280F292F310F29EE2899
:104670000F292F31703970419041B14991490F395B
:10468000503971415039503950392F312F310F3154
:104690002F315031503950390F310F310F312F39FF
:1046A000078129BAE9E226DA02A96098A3C966EA75
:1046B000E4E945F244EAA4F2E4F265FBC5F3E4F36D
:1046C000E4F325FCE5F383EB63E383E382E344F463
:1046D000A5FC43EC63EC06FD85FC25F4E5F384EBD7
:1046E00024F306C3D6E57EEF39C64F9C55FEA9D309
:1046F00066E3C6FB63E342DBE2E204EBA6FBE2DA3D
:1047000043EB03D347CB0AD3CBEA06D284D2A4CA65
:10471000C7CAE5A965BA46DBC5E2C7EA28DB2ADCD9
:104720002AEB05D2E3C945BA0792046123712189B6
:104730002191E5990692059243A261A280698CB409
:1047400073E5C56964612040A57154D513C54FC494
:10475000AAD363C227D389A24A61CD40EF38EE3095
:104760002F310F310F290E290F312F310F29EE284C
:10477000EE282F31703970395039904990492F39CE
:10478000504191415039503950390F312F310F314B
:104790002F315039703950392F390F312F39503965
:1047A000688908B2C9DA47DA03B16098A2C164EA3D
:1047B00023EA24EA23E2C4EA45FB24EB63E3E2EBC9
:1047C000C4EB83E304FC82EB83F342EB43EBC6F3DD
:1047D000C5EBA3E3C2DB24EC65F4E4EB83E3E5F390
:1047E00005E3A9D34EC416D63AF793D591ED68CB1D
:1047F00067E325EB04EBC2E223EBA5FB85F364F34F
:1048000027E324DB84DBA6DBAAD3EBD3C8D365D3B1
:1048100026DB06CB25CB45DB05E3C6E269DB2BDCDB
:104820006CBB26C241C905D2C69125516761E368B8
:104830002389E499259A029A63AA42AA82794A9B1B
:1048400032E52FBC24494018866238FFD0D453FD8E
:10485000ECE364BA26CB09BB0A82CA48ED40ED40BE
:104860000F390F31EE300F312F312F292F290E291B
:104870000E294F314F3970419049125AD1514F4151
:10488000914170397039913970392F3150312F3150
:104890002F3950395041704130390F3150392F3153
:1048A000478128B2C9E227DAE3B06098A2C164EA7E
:1048B00003E265F264EA83E225F3A6FBE4F3C2E3D4
:1048C000A4EBC4EB25FC04FC82EBC4FB63EB64E3C8
:1048D000A4EBA3E3E3EB85FC45F425F4E5EBC5EBA2
:1048E00066EB88CBF4F5D1ACD5CDD8FED2F568CB4C
:1048F00005D325E345F303E323EB64EB43E323E331
:1049000048EB65DBC6DBA8DBEBE3EBDBE9DB09E4CB
:1049100047DB07D346D366DBE6DAC8DA8BE3EAD3B4
:10492000489283A1C3C905CAC6892551A8614571AA
:1049300002818391459A029A43AA43AA8279057A11
:104940008FD453E548726020A76A39FF8BA3B1EC7E
:104950000DE4A5C247D349C34A920A51EC40ED3851
:104960000F392F390F310F312F312F292F312F319F
:104970002F312F310F3150419049125AD1492F39DF
:104980009141B141B141B14170392F315039503964
:10499000303950417141714130392F3150392F3107
:1049A000278108B2A8DA06D2E3B0A1A0C3C964EA9D
:1049B00023EA64F264EAC4EA66FBC6FB05FCE2EBA8
:1049C000A4EB25FCE4F3C3EBE3EB45FC62E3A4E3D7
:1049D00005F4E4EBE4EB65FCE4EB05F425F463DBC0
:1049E00005DB89CBB7FE98E6509C56EE34FE06BB3D
:1049F00066DBA7F3C6FB43EB43EBA4EB84EB84E35A
:104A000067EB65DBE6DBE9DB8ADB48CB27C347CB1B
:104A100089E348DB88DBA8DBE7CA0AD3ABE369C3D9
:104A20000459806825BA66BA8579A4384649A671C2
:104A300023794281459A239A63B263B2C289426163
:104A4000268233DDCEAB4028E97AF8FE2A9B8BBB69
:104A500049CB64BA27D349CBCBAA6A61EB400D3965
:104A60000F3930392F310F310F292F294F310F29AD
:104A70002F314F394F3990419049D151B0494F3979
:104A800091411352F249B141703950315039503986
:104A900050397141714191415041303950392F3174
:104AA0006889E8B188DAE6D103B9C1A8E3D164EA3C
:104AB00043EA24EA63E225F3A6FBE6FB45FC84FC1B
:104AC000C5F305F4E3EBC2E384FCA5FC24EC46F457
:104AD000E4EB25FC04F486FC04F425F467FCC5EB48
:104AE00046DB27BB97FE37D674BDD0B491EDC9D352
:104AF00086DBA6EB85EB64EBA4EBE5F305F426F48B
:104B0000C6F3C5DB48DC6BEC07CBC6C2A4B243AA34
:104B100048D389E3C9E3C8DB48C34ACBABD3E6BA81
:104B200082400040E491269AE458A530842804513C
:104B300064796381259264A263B284BA0492636942
:104B40004259EEB333E540388B933AFF8782CCBBB2
:104B500007B3A5BA26D349D30BBBAA79EA402D31B6
:104B60000F39503930392F312F31503170392F31C1
:104B70002F3150397041D149B149125AD1496F4151
:104B80009141545A3352B1419141503950395039C1
:104B9000713992499141914171415039503950399F
:104BA000899108B2A8DA26DA24B9C1A8C3C964EA8F
:104BB00002E244EAA4E225F3C6FB47FCA7FC85FC1D
:104BC00047FCC4EB44F443EC84ECA4ECC5F424ECC3
:104BD00082DB24F404F445FC03F4A3EBE5EBC5EB22
:104BE00068DB69BBB0C494C5B5C515E6EFDCC8D3B6
:104BF00086DB85EBA4EBC4EB04F4E4EB04E425ECE6
:104C000005F446E4AAE44BDC69D328CBE6BAA5B2A6
:104C100008CBCBEB0AE40AD4CBC38CC36ACB84AAFF
:104C200063300020425902598340484184200020CB
:104C30002369A481E58965A243B2A5C2249AC471FF
:104C400002516CA373ED8CAB16EE4FACA04076FE18
:104C5000E7B2E6BA47D348DB2ACBEA91E9406D31A7
:104C600030395041503930395039703991392F31FC
:104C7000503970397041D151125A7462F2514F411A
:104C8000B149545A335AB249B1417141713950391D
:104C90007141B2499249914191417039503950392D
:104CA000699108B2C9E247E243C1A0A8C2C984EA37
:104CB00023EA64EAA4EA44EBC5FB46FC86FC23EC49
:104CC00046FC25F444EC43E442DC84E4A4EC43E4F5
:104CD00064EC85FC24F443F465FC04ECE5EBE6EBC2
:104CE00048CBCBC3B4E5509C78DE19FF0FE5E4BA9E
:104CF00085E3A5EBC5EB25F424F4E3E3E3E325E446
:104D000005F4CAF40EED2EDC90F40DE4CBD3ABCB5E
:104D10004BD32FF46EE44ED42FC4AEC30BBBC49957
:104D200044280010E1302028A4406849C528001814
:104D30008148C581E489659A43AAA6C2249AC471B0
:104D4000E2406BA332E5D5F57CFFA972066214FE42
:104D50002492C5BA47D347DB6ADB49A209518E3199
:104D6000504170412F390F313031703991395039FC
:104D7000503970397041D151125A7462125A4F41F0
:104D80009149135AF351D251B249714150393039D6
:104D90007141D249B24991419141704150397041BC
:104DA0004889E8B1A8E246E223C1C0A8C3D184EA99
:104DB00064EA64EAE4EA85F3C5F3C4EB04EC02E4D4
:104DC000A3E344F423E443E484E4C5ECC4E405F53C
:104DD000E5F484EC43EC22ECC5FC65F406ECE8EB6E
:104DE00049CBE8A277FED6CD91A419FF8DD4E4BAC1
:104DF00044DBA5E3C5E345F444F423E465ECA6EC09
:104E000027F4CBEC10ED91DCB3F4B2EC70DC2FD4D2
:104E1000CEDB50EC70DC90CC10BC8FBBCCB22489C4
:104E200003202110E2204120E6404849A52021200E
:104E30006140A579E581459A44AAA6C245A2C471FC
:104E4000C3408882AFCCD1D4DAFE28628451D3F536
:104E5000C289C6B267D367DB69E369B208514D29DD
:104E6000714971492F390F312F312F31703950313C
:104E70002F3170419141B149B149335A12527041B9
:104E80009149D251D251D251B24951415041103978
:104E90007141D249B24991419149704150395039DB
:104EA0004889E8B188E205DA23C1E1B0C3D123E241
:104EB00043E284EA25F3E5FBA4EB83E303EC43E45C
:104EC00023E464ECC5F427FD27FDC5ECE4E425F5F7
:104ED00004EDC4EC25FDE4F445FD85F4E6E388DB50
:104EE00086AA058A94E5BAF6D2AC52D52BD4E3C291
:104EF000A5EB06F426EC86F4C6FC84F4A5F4C6EC17
:104F000047EC29DC8DD491DCCFC391D48FD40DCC68
:104F1000EDD30FD42EC46FBCEEB34DB3CBB2C37878
:104F20000220A32023198220E6406951842800181A
:104F300081406471A479459265AA85BA66A2047A13
:104F400045512030E8928FC4B1BC8549A130ABAB4C
:104F5000C389E6BA68D346DB47E388BA49618E392C
:104F6000914991495041503930312F3150315031B0
:104F700050397041504170419049536212524F4133
:104F8000B149D249D251135AD251514151413039CC
:104F90007141D249B1499141B14970412F392F39FD
:104FA0006991E8B167DA25E202C121B9E3D184EA67
:104FB00063EAA4EA85FBA3EBE4F325F444EC22E4E2
:104FC00042E405FDE5FC27FD48FDE6EC06ED04E5C1
:104FD000A5F5A6F5E3E485FD45FD64E4E7E324B229
:104FE000C489A79A2FB499EE99EED4E52BD4E3CADD
:104FF00002DBC5EBC8FCE7FC44F484F464EC86E413
:1050000086EC27D467AB2DC494ED11DD8DCC6CCC30
:1050100089BBCFE4F3ED8EBC69A38ABBE9B280689B
:105020000228A3200319A3202749895963280018BF
:105030006140C6798371459285AA65B286AA047AD1
:1050400086590020CCA373D5B2B404318130C3712A
:10505000C391E7C247CB66DB46E3C9CA49694E390B
:105060009151D2515041303930395039303130318D
:1050700030317141504150419049125AD1519049BB
:10508000D2519149D251F351B251714950415041DD
:105090007141D249B1417141914170412F394F4124
:1050A0004989E8B187DA66EA42C962C123DAA4EA2B
:1050B00084EAC4EA84F3E4F324FC65FC44EC63EC86
:1050C000E4F425FD66FD27FD28FDE7F4C4E4E6FDD4
:1050D00084EDA5EDE6FDE6FDE6FDC5ECC7DB05AA22
:1050E000E591A89AA88A54CD78EED8FE88C3A6EB9D
:1050F00026FC26FC67F486F443F464FC44EC45E4A7
:10510000C7F464BB22828EC4F5EDA7828CBC8BCC25
:1051100046B3D1F50FCDC261E692A9C386AA605805
:1051200002280531A210A420485168598330402834
:105130004040C681E581048AC6B2A6BA86A2C37180
:10514000E76900186EACED9B4D7BA328A130A379D5
:10515000C39108C368CB86D346E3C8CA49714E41A0
:105160009151B2513041303930395039503150318C
:105170000F315039303950419149335AD151B149E9
:10518000335AB149D251F359D251925171493041F8
:105190007141D249B14191419141704150414F41DA
:1051A000699108BAA7E286EA83C9A3C923DA84EA27
:1051B00084EAE4EA64EB24F485FCC6FC85F4E5F4B7
:1051C000E3EC65FD05F5E6F408FDC6EC05F5C6FD66
:1051D000C5F544E528FE06FE27FE47F5C7DB0ACBEA
:1051E0008BC363712259EEA354C597FEE9D323DB29
:1051F000A3F3C4EB46ECC7FCA5FC84FC03EC25DC64
:105200000AFD66BBC2796FC48CA300288DC44BCC49
:10521000849AD2F5C7822030A59AAACB479A20401B
:105220002330C5284208E528A961675962386551CD
:105230004461C681268AC381A6B2A6BAA6AA048200
:10524000656940302D9C6B8300106228E2404271FA
:10525000C399E7CA68CB86D366E3C9CA4A716F4966
:105260009151B25130413039303950395031503983
:105270005039503950399041F2517462335A325298
:105280009462F151F2511362D259B25192513039B4
:105290009149F249B141D249B149704190494F41D8
:1052A000699108BAA7E266EA82D1A3D123DA43E280
:1052B00063E204EB63EB03EC84FCC6FCA5F406FD9F
:1052C000E3EC65FDE4ECC5F4A6ECA6EC87FDC6FDB9
:1052D00007FE86EDE8FDA5F5A5FD47F5A7D38CDB18
:1052E0002AB3268A267A70B4B1B4D3E5C8D384EB46
:1052F000E4FBE4F305E445ECC2EBC2F304EC67EC39
:1053000049EC06B38271ACAB8DA30030ECBB2CD45E
:10531000A5A20CC44A9B0030C7A2CBCBC6812330C8
:1053200064302318A420073968518759E348CEAB6D
:105330000B9BA581058A2492A6B265B2C6B2A2795A
:10534000C6796038E449475A00108230A461A279D6
:10535000E3A1E7CA47CB86D367DB0ACB8B796F49DA
:10536000B251D25150413039303950395039513918
:105370005039503950399141335A94627362735A9B
:10538000166B1252F2515362F259D251D259304136
:105390009141F249D2491252F2517041D1517049B2
:1053A0004989E8B186E286EAC3D1E3D144E243E227
:1053B000A4EA25F3C4F344F4C5FCA5FCA5F405F563
:1053C00004EDA2E424F5E5EC44DC84E445F527FE95
:1053D000E7FDA8FD68F583D424F568FDA7D388BA56
:1053E0004792C8A28BABB0BC16E651D5A7CB42E31F
:1053F000A3FBE4EB05E446ECE3EBE2F3C3EBC5E32C
:1054000069F427B3C050E992267AE158ABBB4DDC72
:1054100068BB4492458A216969BB8BC36569843046
:1054200063280210E62828398851E861A240CA9210
:1054300050CC889A048A0392A5B2A5BA47C3249295
:1054400084816259001060200120A340435961719A
:1054500004AA07CB27CB66CB88E30BCB8B718F4994
:10546000D259F35950415039503971397139713924
:10547000914171399141D149535AB56A946294620C
:105480005673525212527462F259D259135A504101
:105490009141F249F2493352535AD151325A905103
:1054A0006991E8B186E2A6F204E224E244E243E232
:1054B000A4EA24EBE4F364FC05FD84F4A4F405F50C
:1054C000A3ECC3EC24F525F5A4E4E4EC85FD84FD10
:1054D000A3E428F509F5A1CBE4F4E6F4E7DBA7BAE9
:1054E0000AAB4AABABABB4DD98EEB3E5A7CBC4F3E4
:1054F000C3FB04EC05DC25ECE3EB03FC05F4E6E37D
:10550000C6EB06B34040CCABE38185A22CDC2CDC9F
:1055100088C3849A4079C6AACACB49B32349A41840
:1055200023106418E7280831A949085AC2400359D2
:10553000A679E689058AE391A5B2C5BAE6BA039AC7
:1055400083896682A34900188340A3488369206940
:1055500064B207D306CB66D388DBEBC28A69AF415E
:10556000D259F35950415041713991399139B24171
:10557000B241B241F249F2517462B56AB462B462A6
:105580005673525A12527462135AF259346270416D
:105590009141F2493352735AB56A125A5362D15942
:1055A0008A91E8B186E2C6FA45E245E264E222E287
:1055B00083E245EBE4F343F463F443ECA4F4C4F472
:1055C000A4EC86FD65FD86FDA7FDA7FD06FE23ED87
:1055D00060BBC8F40AFD62CB63EC43E4E7DB29CB94
:1055E0006BB3C89AABAB8FBC77EEF3ED86CBA3F36E
:1055F000E3FB45F426E446ECE3F3E3FB05FCE6E3DA
:1056000048FC88C38040499B0BCC47CBCADB0CDCF1
:1056100088CB67C388CB27C38ACBC79AE238830875
:105620004200E7280831E828C941A749076A0B9BCF
:1056300081586479459AE29184B2E5C206C3E5BA1D
:10564000A391C471C4516651A450456982696071C7
:1056500084B206D306CB46D368DBCABA6A61AF41CF
:10566000D251D25950417041713991419139B24171
:10567000B241B2411352D249535A735A935A935A70
:105680005673935A1252946A536213623462714190
:10569000D2493352945A9462F67253623262F1598B
:1056A000AB99E8B166DAA6F224E245E264E243E2AD
:1056B000C5F2E7FB46FC63F401EC84F4E6FCC4F4B9
:1056C000E6F486FDA6FD86FDC7FD07FEA4FDA5FD4B
:1056D00080CBC9FC48F4C0C243ECE6FC85D3E3A10F
:1056E000A479468A31DDD0BC32BDD3ED08D404FCA8
:1056F000E3FB25F406DC66EC24FC04FC05FCC6EBAD
:10570000C6F3A9CB01510472EACB68DB0BEC0CE4C5
:10571000AAD368CB27CB69D3AAD32682C330A408E7
:10572000A408E720A82009314C52C749897AB2D48D
:10573000A5796371869A239AC5BA06CB26CB26CB68
:10574000C499C3712662A76127692571C379A079BD
:1057500084B2E6D2E5CA46D348D3A9B26A61CF4142
:10576000D251D25950417041713991397139B24198
:10577000B241D2493352F2493352735A735A935A4F
:10578000977BB462535AD572B572746A756A91493F
:105790001352745AD562B46236737362125AD15975
:1057A0004891E7B1E7E2C5F2A6EA46E245E262E2E5
:1057B00063FBE4FB44ECC3EC23FD44FD07FD67FC05
:1057C00086F5C4EC26F509FE28F629FEA1C3A8EC4F
:1057D00043BB4BFDC8FC60BA25EC88ECC7DBE2A9F3
:1057E00025AA66926B8B98CE55C64ED547E406FC2B
:1057F000E6FB06FC26EC65EC64EC65EC66F4E6EB97
:105800000BD4E992E3386751AB9AEDE32CEC4BDC17
:10581000E9CBC8CB87D3A8CB89B34349E5308620F1
:105820006520E720282189296B5AC651C669EDB247
:105830006578A48885B2409A04B347D3C5C266D3BD
:1058400024B2C3812562265A8561E3706591228165
:10585000A5AAE4BA04D345E307D38AA28B598E41A3
:10586000B251B24972317231914171417141B241CB
:105870001342F249F251D3517662755AD462F362FF
:10588000F783D362B362F572157BF57A946AD151CE
:10589000325A725A935AB362F46AB4629462F25101
:1058A000699107B2C6E284EA65EA66E2A5EA04F312
:1058B000C4FB45FCA6FC26FD24FDE3FCC5F4C8F4AE
:1058C000C7FD26F523D42AFE09FE46ED40BBE8F4C9
:1058D000C1B2C5D3A3DB80BA44ECA7EC48E446CB05
:1058E0008AD38379466257CE39EFF1E527E4C4F3D2
:1058F00067FC05F486F465EC64EC67F408EC2AECCC
:10590000EBB26561C4306649688AA391EBDB2BD4A6
:105910002BCC89C368C3A9CB24820341C528A72007
:105920006620C7200819CA398C628549C661EDAA6C
:105930006470A38085AA209225BB47D306CB25CBD4
:1059400008D3C2898682056A0359079A2381C491C4
:1059500065A205C346DBE5D229CB088A2A51AF519F
:105960007049B24192399231913950417141D341DC
:10597000F341F241F251B249555A955A156B75737C
:10598000188C356BB362157B167BD572D572F151CD
:10599000525A9362B362D462156BF56AD56A535A50
:1059A0004989E7B1A6EA84F264EA85E2E5E264EBBC
:1059B00004FC25FC65F4A5FCE3FCE3F467FDAAFD0B
:1059C000C9FDE7EC21BB49F5EBFDE7EC20C3E9FCA1
:1059D00043CBC4DB83E3E0CA03E4A6E487DC07DC53
:1059E000CAD3058A887A98E6D7F62DD567E487FC6E
:1059F00086FC86FC64F4A5FC46F409EC0CE4C9B210
:105A00004979AB6907396220ECB3659A27B3CABB01
:105A10004AA36BB38BC3058AA048A6514418A7209C
:105A20006718E82049296D5AAC6AC230A038C7719E
:105A3000A568E480C7B242A2E5BAE6CA06CBE4C2D2
:105A4000A5C2A5AAE381A37184794479279A88A283
:105A5000E491E7C2E6CA27CB09B3C871AB61EF692D
:105A60007049B149D239B23991419141B249134A91
:105A7000F241124AF249B249755A955A366BD67BB1
:105A8000388C5573B3623573F572B46AD572F151BF
:105A90009362F46AF46AF46A3573F56AD56A9462BB
:105AA0002889C7B186E2A4F284EAA5E204DB84EB8C
:105AB00005FC45FC86FC64F4E4FC24F5C8F5C9ED5E
:105AC0002EFE89EC05C3E4B228DCC6D381C207F4FC
:105AD00089FCC9FCA8FC25FC44ECE8ECC8E447DCE4
